:100000000C9432000C944F000C944F000C944F0051
:100010000C944F000C944F000C944F000C944F0024
:100020000C944F000C9474030C944F000C949B039D
:100030000C944F000C944F000C944F000C944F0004
:100040000C944F000C944F000C944F000C944F00F4
:100050000C944F00B403B903BE03C303C803CD031C
:10006000D103E00311241FBECFE5D4E0DEBFCDBF36
:1000700010E0A0E6B0E0E8EDFDE002C005900D92D2
:10008000A638B107D9F720E0A6E8B0E001C01D927C
:10009000A93AB207E1F70E942E030C94EA060C94E9
:1000A000000085B3816085BB85B3826085BB81B369
:1000B000816081BB81B3826081BB86B78B7F86BF45
:1000C00011B880E280B984E086BF8AE18A95F1F7B1
:1000D00000C0089584EA86BF06B607FEFDCF81B151
:1000E000887F8830E1F7089583B984E886BF06B633
:1000F00007FEFDCF81B1887F8831E1F7089583B98C
:1001000084E886BF06B607FEFDCF81B1887F8832BE
:10011000E1F7089584E986BF0895CF93C82F0E9420
:100120006A008EE40E9474008C2F0E947F000E945F
:100130008A00CF910895CF93C82F8091A8008F7027
:100140009C2F907F892B84608093A8000E948D0053
:1001500082E08A95F1F700C08091A8008B7F8093A0
:10016000A8000E948D008DE08A95F1F7000080E1E3
:10017000C89F900111248091A8008F70822B846009
:100180008093A8000E948D0082E08A95F1F700C05C
:100190008091A8008B7F8093A8000E948D008DE045
:1001A0008A95F1F70000CF910895CF93C82F88E08A
:1001B0008093A8000E948D008C2F0E949B00CF91FD
:1001C0000895CF93C82F8091A80089608093A800DC
:1001D0000E948D008C2F0E949B00CF910895CF9399
:1001E000DF93EC018881882321F021960E94E100B1
:1001F000F9CFDF91CF910895CF93DF93EA0181305A
:1002000011F480E801C080EC860F81500E94D50077
:10021000CE010E94EF00DF91CF91089581E00E940E
:10022000D500089584E08093A8000E948D0082E4A8
:100230008A95F1F700C083E00E94D50083E00E9418
:10024000D50083E00E94D50082E00E94D50088E2BC
:100250000E94D5008CE00E94D50081E00E94D5006C
:1002600086E00E94D5000E940E0180E80E94D50021
:1002700008955D9BFECF8CB9089510BC83E389B9C6
:1002800086E880BD88E98AB9089581B3806481BB1E
:1002900082B38F7B82BB8FE39CE90197F1F700C0AB
:1002A000000082B3806482BB9AE69A95F1F700C0A1
:1002B000089581B38F7B81BB8699FECF869BFECF4D
:1002C0008699FECF089520E030E028303105D4F43F
:1002D000869BFECF80E58A95F1F7869B09C08091C9
:1002E000A70090E0880F991F81608093A70005C048
:1002F0008091A700880F8093A7008699FECF2F5F7B
:100300003F4FE3CF8091A7000895CF93DF930E94E2
:1003100045010E9459010E9463018093A6000E943A
:1003200063018093A5000E9463018093A4000E9452
:1003300063018093A3000E9463018093A2008091D7
:10034000A600482F50E020919E0030919F00421758
:10035000530759F42091A40030E04091A00050913F
:10036000A1002417350709F46DC01F928F9380E612
:1003700090E09F938F93CEE8D0E0DF93CF930E94DD
:100380000004AE0161E081E00E94FC0086E690E09E
:100390000E94EF008091A4001F928F9388E690E066
:1003A0009F938F93DF93CF930E940004AE0168E088
:1003B00081E00E94FC008FED0E94E1008EE690E05B
:1003C0000E94EF0088E50E9439018091A600CDECE3
:1003D0008C9F812D11248695869586950E943901E2
:1003E0008091A6008C9F912D1124969596959695B7
:1003F000990F292F220F220F920F891B0E9439017A
:100400008091A4008C9F812D1124869586958695D8
:100410000E9439018091A4008C9FC12D1124C695A2
:10042000C695C695CC0F9C2F990F990FC90F8C1BA1
:100430000E9439018DB79EB70C960FB6F8949EBFF7
:100440000FBE8DBF8091A40090E09093A100809397
:10045000A0008091A60090E090939F0080939E0062
:10046000DF91CF910895C89915C09E9907C085E482
:100470000E94390195B380E4892785BB8AB59BB575
:10048000883E934039F487E40E94390180ED97E07B
:100490009BBD8ABD0895C99B04C0CA9904C081E070
:1004A00003C081E001C080E0882361F088B599B580
:1004B000883E934039F488E40E94390180ED97E04A
:1004C00099BD88BD089583E083BF81E089BF82E83C
:1004D00082BF0895CC9912C08FE19EE40197F1F795
:1004E00000C00000CC99A8C0CC9BFECF81E40E9444
:1004F000390195B384E0892785BB0895CD9912C051
:100500008FE19EE40197F1F700C00000CD9994C0FF
:10051000CD9BFECF82E40E94390195B388E0892704
:1005200085BB0895CE9912C08FE19EE40197F1F743
:1005300000C00000CE9980C0CE9BFECF83E40E9415
:10054000390195B380E1892785BB0895CF9912C001
:100550008FE19EE40197F1F700C00000CF996CC0D5
:10056000CF9BFECF84E40E94390195B380E28927B6
:1005700085BB0895B09912C08FE19EE40197F1F711
:1005800000C00000B09958C0B09BFECF85E40E9427
:10059000390195B380E4892785BB0895B19911C0CD
:1005A0008FE19EE40197F1F700C00000B19944C0CB
:1005B000B19BFECF86E40E94390185B3805885BB8C
:1005C0000895B2991CC08FE19EE40197F1F700C035
:1005D0000000B29931C0B29BFECF87E40E9439017E
:1005E0008AB59BB5883E934029F480ED97E09BBD8A
:1005F0008ABD089588EE93E09BBD8ABD0895B399A6
:100600001BC08FE19EE40197F1F700C00000B39991
:1006100013C0B39BFECF88E40E94390188B599B519
:10062000883E934029F480ED97E099BD88BD0895F8
:1006300088EE93E099BD88BD08951DBC1CBC80E286
:100640009EE497BD86BD82EA8FBD8AE18EBD88EEAD
:1006500093E09BBD8ABD99BD88BD08958FEF8BBB8C
:100660001ABA88BB17BA15BA84BB80E381BB0E9453
:1006700051000E9412010E943D010E9463020E94EB
:100680001D03789480918A0090918B00A0918C003A
:10069000B0918D0040918600509187006091880054
:1006A00070918900841B950BA60BB70B883E934075
:1006B000A105B10590F00E94850110928A00109268
:1006C0008B0010928C0010928D0010928600109278
:1006D000870010928800109289000E946A020E948E
:1006E0004B020E943302CECF1F920F920FB60F9291
:1006F00011248F939F93AF93BF9382E882BF809121
:100700008A0090918B00A0918C00B0918D00019691
:10071000A11DB11D80938A0090938B00A0938C0043
:10072000B0938D00BF91AF919F918F910F900FBEAD
:100730000F901F9018951F920F920FB60F921124D1
:100740002F938F939F93AF93BF93EF93FF93ECB14E
:100750008E2F90E0FC01E154F109E830F105F0F54D
:10076000E65DFF4F0C94FA0395B384E0892785BBBF
:1007700035C095B388E0892785BB30C095B380E14B
:10078000892785BB2BC095B380E2892785BB26C00E
:1007900095B380E4892785BB21C085B3805885BB8C
:1007A0001DC08AB59BB5883E934029F480ED97E043
:1007B0009BBD8ABD13C088EE93E09BBD8ABD0EC071
:1007C00088B599B5883E934029F480ED97E099BDAE
:1007D00088BD04C088EE93E099BD88BDFF91EF917C
:1007E000BF91AF919F918F912F910F900FBE0F905E
:1007F0001F901895EE0FFF1F0590F491E02D0994BE
:10080000AEE0B0E0E6E0F4E00C94C1060D891E898C
:1008100086E08C831A8309838FEF9FE79E838D8305
:10082000AE01475E5F4F6F89788DCE0101960E94C1
:100830002204EF81F885E00FF11F10822E96E4E08C
:100840000C94DD06ABE0B0E0E8E2F4E00C94B30613
:100850006C017B018A01FC0117821682838181FF72
:10086000CCC1CE0101963C01F6019381F70193FDC5
:10087000859193FF81917F01882309F4BAC1853264
:1008800039F493FD859193FF81917F01853229F49D
:10089000B60190E00E941906E7CF912C212C312C53
:1008A000FFE1F315D8F08B3279F038F4803279F02B
:1008B0008332A1F4232D20611DC08D3261F080337D
:1008C00069F4232D216016C0832D8260382EE32D1C
:1008D000E4603E2E2AC0F32DF8601DC037FC2DC009
:1008E00020ED280F2A3040F08E32B9F436FC81C159
:1008F000232D2064322E19C036FE06C08AE0989E51
:10090000200D1124922E11C0EAE02E9E200D1124FC
:10091000222EF32DF0623F2E08C08C3621F4832D59
:100920008068382E02C0883641F4F70193FD859126
:1009300093FF81917F018111B3CF982F9F7D9554B3
:10094000933028F40C5F1F4F9FE399830DC08336CB
:1009500031F0833771F0833509F059C021C0F801B7
:10096000808189830E5F1F4F88248394912C5301CB
:1009700013C02801F2E04F0E511CF801A080B18095
:1009800036FE03C0692D70E002C06FEF7FEFC50136
:100990000E940E064C018201F32DFF773F2E16C0F8
:1009A000280122E0420E511CF801A080B18036FEE1
:1009B00003C0692D70E002C06FEF7FEFC5010E9498
:1009C00003064C01F32DF0683F2E820133FC1BC05F
:1009D000822D90E088169906B0F4B60180E290E08E
:1009E0000E9419062A94F4CFF50137FC859137FE51
:1009F00081915F01B60190E00E94190621102A94AE
:100A000021E0821A91088114910471F7E8C08436BC
:100A100011F0893641F5F80137FE07C06081718118
:100A2000828193810C5F1F4F08C060817181072E06
:100A3000000C880B990B0E5F1F4FF32DFF763F2E96
:100A400097FF09C090958095709561957F4F8F4F66
:100A50009F4FF0683F2E2AE030E0A3010E94550628
:100A6000882E861845C0853731F4232D2F7EB22E6F
:100A70002AE030E025C0932D997FB92E8F36C1F042
:100A800018F4883579F0B5C0803719F0883721F02F
:100A9000B0C0E92FE061BE2EB4FE0DC0FB2DF460A6
:100AA000BF2E09C034FE0AC0292F2660B22E06C010
:100AB00028E030E005C020E130E002C020E132E073
:100AC000F801B7FE07C060817181828193810C5F5C
:100AD0001F4F06C06081718180E090E00E5F1F4F64
:100AE000A3010E945506882E8618FB2DFF773F2E06
:100AF00036FE0DC0232D2E7FA22E891458F434FE0D
:100B00000BC032FC09C0832D8E7EA82E05C0B82CE8
:100B1000A32C03C0B82C01C0B92CA4FE0FC0FE0149
:100B2000E80DF11D8081803321F49A2D997EA92E44
:100B300009C0A2FE06C0B394B39404C08A2D86787F
:100B400009F0B394A3FC11C0A0FE06C0B21488F44F
:100B5000280C922C9B180EC0B21460F4B60180E2EF
:100B600090E00E941906B394F7CFB21418F42B1832
:100B700002C0982C212CA4FE10C0B60180E390E0A6
:100B80000E941906A2FE17C0A1FC03C088E790E0EE
:100B900002C088E590E0B6010CC08A2D867859F035
:100BA000A1FE02C08BE201C080E2A7FC8DE2B6018B
:100BB00090E00E941906891438F4B60180E390E0B1
:100BC0000E9419069A94F7CF8A94F301E80DF11D5B
:100BD0008081B60190E00E9419068110F5CF222095
:100BE00009F442CEB60180E290E00E9419062A94F0
:100BF000F6CFF6018681978102C08FEF9FEF2B968B
:100C0000E2E10C94CF06FC010590615070400110A8
:100C1000D8F7809590958E0F9F1F0895FC01615025
:100C2000704001900110D8F7809590958E0F9F1F0E
:100C300008950F931F93CF93DF93FB01238121FD31
:100C400003C08FEF9FEF2CC022FF16C04681578153
:100C5000248135814217530744F4A081B1819D015D
:100C60002F5F3F4F318320838C93268137812F5F05
:100C70003F4F3783268314C08B01EC01FB010084B6
:100C8000F185E02D0995892BE1F6D80116968D9115
:100C90009C911797019617969C938E931697CE0169
:100CA000DF91CF911F910F910895FA01AA27283063
:100CB00051F1203181F1E8946F936E7F6E5F7F4F29
:100CC0008F4F9F4FAF4FB1E03ED0B4E03CD0670FA5
:100CD000781F891F9A1FA11D680F791F8A1F911DF8
:100CE000A11D6A0F711D811D911DA11D20D009F448
:100CF00068943F912AE0269F11243019305D31938A
:100D0000DEF6CF010895462F4770405D4193B3E072
:100D10000FD0C9F7F6CF462F4F70405D4A3318F019
:100D2000495D31FD4052419302D0A9F7EACFB4E0CA
:100D3000A6959795879577956795BA95C9F7009782
:100D40006105710508959B01AC010A2E0694579523
:100D5000479537952795BA95C9F7620F731F841F7A
:100D6000951FA01D08952F923F924F925F926F9210
:100D70007F928F929F92AF92BF92CF92DF92EF922B
:100D8000FF920F931F93CF93DF93CDB7DEB7CA1BAC
:100D9000DB0B0FB6F894DEBF0FBECDBF09942A88D7
:100DA000398848885F846E847D848C849B84AA847F
:100DB000B984C884DF80EE80FD800C811B81AA810C
:100DC000B981CE0FD11D0FB6F894DEBF0FBECDBFD7
:080DD000ED010895F894FFCF36
:100DD80044413D25640025004E443D256400430000
:100DE800434F204741532025640042494E48205430
:060DF80048554F4E470074
:00000001FF
